{
  "_format": "hh-sol-artifact-1",
  "contractName": "IdentityVerification",
  "sourceName": "contracts/IdentityVerification.sol",
  "abi": [
    {
      "inputs": [
        {
          "internalType": "address[]",
          "name": "idp_providers",
          "type": "address[]"
        },
        {
          "internalType": "address[]",
          "name": "idp_admins",
          "type": "address[]"
        },
        {
          "internalType": "address[]",
          "name": "verified_users",
          "type": "address[]"
        }
      ],
      "stateMutability": "nonpayable",
      "type": "constructor"
    },
    {
      "anonymous": false,
      "inputs": [
        {
          "indexed": true,
          "internalType": "bytes32",
          "name": "role",
          "type": "bytes32"
        },
        {
          "indexed": true,
          "internalType": "bytes32",
          "name": "previousAdminRole",
          "type": "bytes32"
        },
        {
          "indexed": true,
          "internalType": "bytes32",
          "name": "newAdminRole",
          "type": "bytes32"
        }
      ],
      "name": "RoleAdminChanged",
      "type": "event"
    },
    {
      "anonymous": false,
      "inputs": [
        {
          "indexed": true,
          "internalType": "bytes32",
          "name": "role",
          "type": "bytes32"
        },
        {
          "indexed": true,
          "internalType": "address",
          "name": "account",
          "type": "address"
        },
        {
          "indexed": true,
          "internalType": "address",
          "name": "sender",
          "type": "address"
        }
      ],
      "name": "RoleGranted",
      "type": "event"
    },
    {
      "anonymous": false,
      "inputs": [
        {
          "indexed": true,
          "internalType": "bytes32",
          "name": "role",
          "type": "bytes32"
        },
        {
          "indexed": true,
          "internalType": "address",
          "name": "account",
          "type": "address"
        },
        {
          "indexed": true,
          "internalType": "address",
          "name": "sender",
          "type": "address"
        }
      ],
      "name": "RoleRevoked",
      "type": "event"
    },
    {
      "inputs": [],
      "name": "DEFAULT_ADMIN_ROLE",
      "outputs": [
        {
          "internalType": "bytes32",
          "name": "",
          "type": "bytes32"
        }
      ],
      "stateMutability": "view",
      "type": "function"
    },
    {
      "inputs": [],
      "name": "IDENTITY_PROVIDER_ROLE",
      "outputs": [
        {
          "internalType": "bytes32",
          "name": "",
          "type": "bytes32"
        }
      ],
      "stateMutability": "view",
      "type": "function"
    },
    {
      "inputs": [],
      "name": "IDP_ADMIN_ROLE",
      "outputs": [
        {
          "internalType": "bytes32",
          "name": "",
          "type": "bytes32"
        }
      ],
      "stateMutability": "view",
      "type": "function"
    },
    {
      "inputs": [
        {
          "internalType": "address",
          "name": "idp",
          "type": "address"
        }
      ],
      "name": "addIdentityProvider",
      "outputs": [],
      "stateMutability": "nonpayable",
      "type": "function"
    },
    {
      "inputs": [
        {
          "internalType": "address",
          "name": "idpAdmin",
          "type": "address"
        }
      ],
      "name": "addIdpAdmin",
      "outputs": [],
      "stateMutability": "nonpayable",
      "type": "function"
    },
    {
      "inputs": [
        {
          "internalType": "address",
          "name": "user",
          "type": "address"
        },
        {
          "internalType": "uint256",
          "name": "expiryTimestamp",
          "type": "uint256"
        }
      ],
      "name": "addUser",
      "outputs": [],
      "stateMutability": "nonpayable",
      "type": "function"
    },
    {
      "inputs": [
        {
          "internalType": "address",
          "name": "user",
          "type": "address"
        },
        {
          "internalType": "bool",
          "name": "support",
          "type": "bool"
        }
      ],
      "name": "castVote",
      "outputs": [],
      "stateMutability": "nonpayable",
      "type": "function"
    },
    {
      "inputs": [],
      "name": "defaultExpiry",
      "outputs": [
        {
          "internalType": "uint256",
          "name": "",
          "type": "uint256"
        }
      ],
      "stateMutability": "view",
      "type": "function"
    },
    {
      "inputs": [
        {
          "internalType": "bytes32",
          "name": "role",
          "type": "bytes32"
        }
      ],
      "name": "getRoleAdmin",
      "outputs": [
        {
          "internalType": "bytes32",
          "name": "",
          "type": "bytes32"
        }
      ],
      "stateMutability": "view",
      "type": "function"
    },
    {
      "inputs": [
        {
          "internalType": "address",
          "name": "user",
          "type": "address"
        }
      ],
      "name": "getUser",
      "outputs": [
        {
          "internalType": "bool",
          "name": "isVerified",
          "type": "bool"
        },
        {
          "internalType": "uint256",
          "name": "expiryTimestamp",
          "type": "uint256"
        },
        {
          "internalType": "address",
          "name": "identityProvider",
          "type": "address"
        }
      ],
      "stateMutability": "view",
      "type": "function"
    },
    {
      "inputs": [
        {
          "internalType": "bytes32",
          "name": "role",
          "type": "bytes32"
        },
        {
          "internalType": "address",
          "name": "account",
          "type": "address"
        }
      ],
      "name": "grantRole",
      "outputs": [],
      "stateMutability": "nonpayable",
      "type": "function"
    },
    {
      "inputs": [
        {
          "internalType": "bytes32",
          "name": "role",
          "type": "bytes32"
        },
        {
          "internalType": "address",
          "name": "account",
          "type": "address"
        }
      ],
      "name": "hasRole",
      "outputs": [
        {
          "internalType": "bool",
          "name": "",
          "type": "bool"
        }
      ],
      "stateMutability": "view",
      "type": "function"
    },
    {
      "inputs": [
        {
          "internalType": "uint256",
          "name": "",
          "type": "uint256"
        }
      ],
      "name": "idpAdminAddresses",
      "outputs": [
        {
          "internalType": "address",
          "name": "",
          "type": "address"
        }
      ],
      "stateMutability": "view",
      "type": "function"
    },
    {
      "inputs": [],
      "name": "idpAdminCount",
      "outputs": [
        {
          "internalType": "uint256",
          "name": "",
          "type": "uint256"
        }
      ],
      "stateMutability": "view",
      "type": "function"
    },
    {
      "inputs": [
        {
          "internalType": "uint256",
          "name": "",
          "type": "uint256"
        }
      ],
      "name": "idpProviderAddresses",
      "outputs": [
        {
          "internalType": "address",
          "name": "",
          "type": "address"
        }
      ],
      "stateMutability": "view",
      "type": "function"
    },
    {
      "inputs": [],
      "name": "idpProviderCount",
      "outputs": [
        {
          "internalType": "uint256",
          "name": "",
          "type": "uint256"
        }
      ],
      "stateMutability": "view",
      "type": "function"
    },
    {
      "inputs": [
        {
          "internalType": "address",
          "name": "user",
          "type": "address"
        }
      ],
      "name": "isUser",
      "outputs": [
        {
          "internalType": "bool",
          "name": "",
          "type": "bool"
        }
      ],
      "stateMutability": "view",
      "type": "function"
    },
    {
      "inputs": [
        {
          "internalType": "address",
          "name": "user",
          "type": "address"
        },
        {
          "internalType": "uint256",
          "name": "expiryTimestamp",
          "type": "uint256"
        }
      ],
      "name": "proposeAddUser",
      "outputs": [],
      "stateMutability": "nonpayable",
      "type": "function"
    },
    {
      "inputs": [
        {
          "internalType": "address",
          "name": "user",
          "type": "address"
        },
        {
          "internalType": "uint256",
          "name": "newExpiryTimestamp",
          "type": "uint256"
        }
      ],
      "name": "proposeRenewUser",
      "outputs": [],
      "stateMutability": "nonpayable",
      "type": "function"
    },
    {
      "inputs": [
        {
          "internalType": "address",
          "name": "user",
          "type": "address"
        }
      ],
      "name": "proposeRevokeUser",
      "outputs": [],
      "stateMutability": "nonpayable",
      "type": "function"
    },
    {
      "inputs": [
        {
          "internalType": "address",
          "name": "idp",
          "type": "address"
        }
      ],
      "name": "removeIdentityProvider",
      "outputs": [],
      "stateMutability": "nonpayable",
      "type": "function"
    },
    {
      "inputs": [
        {
          "internalType": "address",
          "name": "idpAdmin",
          "type": "address"
        }
      ],
      "name": "removeIdpAdmin",
      "outputs": [],
      "stateMutability": "nonpayable",
      "type": "function"
    },
    {
      "inputs": [
        {
          "internalType": "address",
          "name": "user",
          "type": "address"
        },
        {
          "internalType": "uint256",
          "name": "newExpiryTimestamp",
          "type": "uint256"
        }
      ],
      "name": "renewUser",
      "outputs": [],
      "stateMutability": "nonpayable",
      "type": "function"
    },
    {
      "inputs": [
        {
          "internalType": "bytes32",
          "name": "role",
          "type": "bytes32"
        },
        {
          "internalType": "address",
          "name": "account",
          "type": "address"
        }
      ],
      "name": "renounceRole",
      "outputs": [],
      "stateMutability": "nonpayable",
      "type": "function"
    },
    {
      "inputs": [
        {
          "internalType": "bytes32",
          "name": "role",
          "type": "bytes32"
        },
        {
          "internalType": "address",
          "name": "account",
          "type": "address"
        }
      ],
      "name": "revokeRole",
      "outputs": [],
      "stateMutability": "nonpayable",
      "type": "function"
    },
    {
      "inputs": [
        {
          "internalType": "address",
          "name": "user",
          "type": "address"
        }
      ],
      "name": "revokeUser",
      "outputs": [],
      "stateMutability": "nonpayable",
      "type": "function"
    },
    {
      "inputs": [
        {
          "internalType": "bytes4",
          "name": "interfaceId",
          "type": "bytes4"
        }
      ],
      "name": "supportsInterface",
      "outputs": [
        {
          "internalType": "bool",
          "name": "",
          "type": "bool"
        }
      ],
      "stateMutability": "view",
      "type": "function"
    }
  ],
  "bytecode": "0x608060405262278d00600155600160025560016003553480156200002257600080fd5b50604051620037393803806200373983398181016040528101906200004891906200083b565b6200006c6000801b62000060620004d460201b60201c565b620004dc60201b60201c565b620000ad7fdac5b2420cc0aa27a8d03fdfc2c7e41e7f97304cbf153539bb32940668857346620000a1620004d460201b60201c565b620004dc60201b60201c565b6007620000bf620004d460201b60201c565b9080600181540180825580915050600190039060005260206000200160009091909190916101000a81548173ffffffffffffffffffffffffffffffffffffffff021916908373ffffffffffffffffffffffffffffffffffffffff160217905550600862000131620004d460201b60201c565b9080600181540180825580915050600190039060005260206000200160009091909190916101000a81548173ffffffffffffffffffffffffffffffffffffffff021916908373ffffffffffffffffffffffffffffffffffffffff16021790555060005b8151811015620002e457604051806060016040528060011515815260200160015442620001c291906200092d565b8152602001838381518110620001dd57620001dc62000968565b5b602002602001015173ffffffffffffffffffffffffffffffffffffffff168152506004600084848151811062000218576200021762000968565b5b602002602001015173ffffffffffffffffffffffffffffffffffffffff1673ffffffffffffffffffffffffffffffffffffffff16815260200190815260200160002060008201518160000160006101000a81548160ff0219169083151502179055506020820151816001015560408201518160020160006101000a81548173ffffffffffffffffffffffffffffffffffffffff021916908373ffffffffffffffffffffffffffffffffffffffff1602179055509050508080620002db9062000997565b91505062000194565b5060005b8251811015620003d757620003417fdac5b2420cc0aa27a8d03fdfc2c7e41e7f97304cbf153539bb329406688573468483815181106200032d576200032c62000968565b5b6020026020010151620004dc60201b60201c565b600783828151811062000359576200035862000968565b5b60200260200101519080600181540180825580915050600190039060005260206000200160009091909190916101000a81548173ffffffffffffffffffffffffffffffffffffffff021916908373ffffffffffffffffffffffffffffffffffffffff1602179055508080620003ce9062000997565b915050620002e8565b5060005b8351811015620004ca57620004347faef616367f94e08b5db6d06c8e8306cf62f838d101a77927bb7302225e13280c85838151811062000420576200041f62000968565b5b6020026020010151620004dc60201b60201c565b60088482815181106200044c576200044b62000968565b5b60200260200101519080600181540180825580915050600190039060005260206000200160009091909190916101000a81548173ffffffffffffffffffffffffffffffffffffffff021916908373ffffffffffffffffffffffffffffffffffffffff1602179055508080620004c19062000997565b915050620003db565b50505050620009e4565b600033905090565b620004ee8282620004f260201b60201c565b5050565b620005048282620005e360201b60201c565b620005df57600160008084815260200190815260200160002060000160008373ffffffffffffffffffffffffffffffffffffffff1673ffffffffffffffffffffffffffffffffffffffff16815260200190815260200160002060006101000a81548160ff02191690831515021790555062000584620004d460201b60201c565b73ffffffffffffffffffffffffffffffffffffffff168173ffffffffffffffffffffffffffffffffffffffff16837f2f8788117e7eff1d82e926ec794901d17c78024a50270940304540a733656f0d60405160405180910390a45b5050565b600080600084815260200190815260200160002060000160008373ffffffffffffffffffffffffffffffffffffffff1673ffffffffffffffffffffffffffffffffffffffff16815260200190815260200160002060009054906101000a900460ff16905092915050565b6000604051905090565b600080fd5b600080fd5b600080fd5b6000601f19601f8301169050919050565b7f4e487b7100000000000000000000000000000000000000000000000000000000600052604160045260246000fd5b620006b18262000666565b810181811067ffffffffffffffff82111715620006d357620006d262000677565b5b80604052505050565b6000620006e86200064d565b9050620006f68282620006a6565b919050565b600067ffffffffffffffff82111562000719576200071862000677565b5b602082029050602081019050919050565b600080fd5b600073ffffffffffffffffffffffffffffffffffffffff82169050919050565b60006200075c826200072f565b9050919050565b6200076e816200074f565b81146200077a57600080fd5b50565b6000815190506200078e8162000763565b92915050565b6000620007ab620007a584620006fb565b620006dc565b90508083825260208201905060208402830185811115620007d157620007d06200072a565b5b835b81811015620007fe5780620007e988826200077d565b845260208401935050602081019050620007d3565b5050509392505050565b600082601f83011262000820576200081f62000661565b5b81516200083284826020860162000794565b91505092915050565b60008060006060848603121562000857576200085662000657565b5b600084015167ffffffffffffffff8111156200087857620008776200065c565b5b620008868682870162000808565b935050602084015167ffffffffffffffff811115620008aa57620008a96200065c565b5b620008b88682870162000808565b925050604084015167ffffffffffffffff811115620008dc57620008db6200065c565b5b620008ea8682870162000808565b9150509250925092565b6000819050919050565b7f4e487b7100000000000000000000000000000000000000000000000000000000600052601160045260246000fd5b60006200093a82620008f4565b91506200094783620008f4565b9250828201905080821115620009625762000961620008fe565b5b92915050565b7f4e487b7100000000000000000000000000000000000000000000000000000000600052603260045260246000fd5b6000620009a482620008f4565b91507fffffffffffffffffffffffffffffffffffffffffffffffffffffffffffffffff8203620009d957620009d8620008fe565b5b600182019050919050565b612d4580620009f46000396000f3fe608060405234801561001057600080fd5b50600436106101a95760003560e01c80636f77926b116100f9578063a217fddf11610097578063d301719311610071578063d3017193146104b8578063d547741f146104d4578063e98d7212146104f0578063ef097fc414610520576101a9565b8063a217fddf1461044c578063ae054a6b1461046a578063c98b8aba1461049a576101a9565b80638cfb3088116100d35780638cfb3088146103c25780638ec7fa48146103e057806391d14854146103fe5780639e6bc1371461042e576101a9565b80636f77926b1461035857806378e2736d1461038a5780637984fc6d146103a6576101a9565b80632f2ff15d1161016657806340ae26801161014057806340ae2680146102d45780634209fff1146102f057806349d2de68146103205780636a1166891461033c576101a9565b80632f2ff15d1461027e5780633450a25a1461029a57806336568abe146102b8576101a9565b806301ffc9a7146101ae5780631a419c0c146101de5780631ce4140e146101fa57806323e4fffa14610216578063248a9ca3146102325780632867142114610262575b600080fd5b6101c860048036038101906101c3919061229d565b61053c565b6040516101d591906122e5565b60405180910390f35b6101f860048036038101906101f3919061238a565b6105b6565b005b610214600480360381019061020f9190612400565b6109be565b005b610230600480360381019061022b9190612400565b610b98565b005b61024c60048036038101906102479190612476565b610c56565b60405161025991906124b2565b60405180910390f35b61027c600480360381019061027791906124cd565b610c75565b005b610298600480360381019061029391906124fa565b610d4c565b005b6102a2610d6d565b6040516102af91906124b2565b60405180910390f35b6102d260048036038101906102cd91906124fa565b610d91565b005b6102ee60048036038101906102e99190612400565b610e14565b005b61030a600480360381019061030591906124cd565b610fef565b60405161031791906122e5565b60405180910390f35b61033a600480360381019061033591906124cd565b611095565b005b610356600480360381019061035191906124cd565b611270565b005b610372600480360381019061036d91906124cd565b611471565b60405161038193929190612558565b60405180910390f35b6103a4600480360381019061039f91906124cd565b611502565b005b6103c060048036038101906103bb91906124cd565b6115d9565b005b6103ca6117da565b6040516103d7919061258f565b60405180910390f35b6103e86117e0565b6040516103f5919061258f565b60405180910390f35b610418600480360381019061041391906124fa565b6117e6565b60405161042591906122e5565b60405180910390f35b610436611850565b60405161044391906124b2565b60405180910390f35b610454611874565b60405161046191906124b2565b60405180910390f35b610484600480360381019061047f91906125aa565b61187b565b60405161049191906125d7565b60405180910390f35b6104a26118ba565b6040516104af919061258f565b60405180910390f35b6104d260048036038101906104cd9190612400565b6118c0565b005b6104ee60048036038101906104e991906124fa565b611a1f565b005b61050a600480360381019061050591906125aa565b611a40565b60405161051791906125d7565b60405180910390f35b61053a600480360381019061053591906124cd565b611a7f565b005b60007f7965db0b000000000000000000000000000000000000000000000000000000007bffffffffffffffffffffffffffffffffffffffffffffffffffffffff1916827bffffffffffffffffffffffffffffffffffffffffffffffffffffffff191614806105af57506105ae82611b50565b5b9050919050565b7fdac5b2420cc0aa27a8d03fdfc2c7e41e7f97304cbf153539bb329406688573466105e081611bba565b600560008473ffffffffffffffffffffffffffffffffffffffff1673ffffffffffffffffffffffffffffffffffffffff16815260200190815260200160002060020154421115610665576040517f08c379a000000000000000000000000000000000000000000000000000000000815260040161065c9061264f565b60405180910390fd5b600660008473ffffffffffffffffffffffffffffffffffffffff1673ffffffffffffffffffffffffffffffffffffffff16815260200190815260200160002060003373ffffffffffffffffffffffffffffffffffffffff1673ffffffffffffffffffffffffffffffffffffffff16815260200190815260200160002060009054906101000a900460ff161561072f576040517f08c379a0000000000000000000000000000000000000000000000000000000008152600401610726906126bb565b60405180910390fd5b6001600660008573ffffffffffffffffffffffffffffffffffffffff1673ffffffffffffffffffffffffffffffffffffffff16815260200190815260200160002060003373ffffffffffffffffffffffffffffffffffffffff1673ffffffffffffffffffffffffffffffffffffffff16815260200190815260200160002060006101000a81548160ff02191690831515021790555081156109b9576001600560008573ffffffffffffffffffffffffffffffffffffffff1673ffffffffffffffffffffffffffffffffffffffff168152602001908152602001600020600401600082825461081d919061270a565b925050819055506002546002600560008673ffffffffffffffffffffffffffffffffffffffff1673ffffffffffffffffffffffffffffffffffffffff16815260200190815260200160002060040154610876919061273e565b11156109b857600560008473ffffffffffffffffffffffffffffffffffffffff1673ffffffffffffffffffffffffffffffffffffffff16815260200190815260200160002060030160009054906101000a900460ff16600460008573ffffffffffffffffffffffffffffffffffffffff1673ffffffffffffffffffffffffffffffffffffffff16815260200190815260200160002060000160006101000a81548160ff021916908315150217905550600560008473ffffffffffffffffffffffffffffffffffffffff1673ffffffffffffffffffffffffffffffffffffffff16815260200190815260200160002060020154600460008573ffffffffffffffffffffffffffffffffffffffff1673ffffffffffffffffffffffffffffffffffffffff168152602001908152602001600020600101819055506109b783611bce565b5b5b505050565b7fdac5b2420cc0aa27a8d03fdfc2c7e41e7f97304cbf153539bb329406688573466109e881611bba565b600460008473ffffffffffffffffffffffffffffffffffffffff1673ffffffffffffffffffffffffffffffffffffffff16815260200190815260200160002060000160009054906101000a900460ff16610a77576040517f08c379a0000000000000000000000000000000000000000000000000000000008152600401610a6e906127cc565b60405180910390fd5b610a8083611bce565b6040518060a001604052808473ffffffffffffffffffffffffffffffffffffffff1681526020014281526020018342610ab9919061270a565b81526020016001151581526020016000815250600560008573ffffffffffffffffffffffffffffffffffffffff1673ffffffffffffffffffffffffffffffffffffffff16815260200190815260200160002060008201518160000160006101000a81548173ffffffffffffffffffffffffffffffffffffffff021916908373ffffffffffffffffffffffffffffffffffffffff160217905550602082015181600101556040820151816002015560608201518160030160006101000a81548160ff02191690831515021790555060808201518160040155905050505050565b7faef616367f94e08b5db6d06c8e8306cf62f838d101a77927bb7302225e13280c610bc281611bba565b610bcb83610fef565b610c0a576040517f08c379a0000000000000000000000000000000000000000000000000000000008152600401610c0190612838565b60405180910390fd5b81600460008573ffffffffffffffffffffffffffffffffffffffff1673ffffffffffffffffffffffffffffffffffffffff16815260200190815260200160002060010181905550505050565b6000806000838152602001908152602001600020600101549050919050565b7fdac5b2420cc0aa27a8d03fdfc2c7e41e7f97304cbf153539bb32940668857346610c9f81611bba565b610cc97faef616367f94e08b5db6d06c8e8306cf62f838d101a77927bb7302225e13280c83610d4c565b6008829080600181540180825580915050600190039060005260206000200160009091909190916101000a81548173ffffffffffffffffffffffffffffffffffffffff021916908373ffffffffffffffffffffffffffffffffffffffff160217905550610d426001600354611d5d90919063ffffffff16565b6003819055505050565b610d5582610c56565b610d5e81611bba565b610d688383611d73565b505050565b7faef616367f94e08b5db6d06c8e8306cf62f838d101a77927bb7302225e13280c81565b610d99611e53565b73ffffffffffffffffffffffffffffffffffffffff168173ffffffffffffffffffffffffffffffffffffffff1614610e06576040517f08c379a0000000000000000000000000000000000000000000000000000000008152600401610dfd906128ca565b60405180910390fd5b610e108282611e5b565b5050565b7fdac5b2420cc0aa27a8d03fdfc2c7e41e7f97304cbf153539bb32940668857346610e3e81611bba565b600460008473ffffffffffffffffffffffffffffffffffffffff1673ffffffffffffffffffffffffffffffffffffffff16815260200190815260200160002060000160009054906101000a900460ff1615610ece576040517f08c379a0000000000000000000000000000000000000000000000000000000008152600401610ec590612936565b60405180910390fd5b610ed783611bce565b6040518060a001604052808473ffffffffffffffffffffffffffffffffffffffff1681526020014281526020018342610f10919061270a565b81526020016001151581526020016000815250600560008573ffffffffffffffffffffffffffffffffffffffff1673ffffffffffffffffffffffffffffffffffffffff16815260200190815260200160002060008201518160000160006101000a81548173ffffffffffffffffffffffffffffffffffffffff021916908373ffffffffffffffffffffffffffffffffffffffff160217905550602082015181600101556040820151816002015560608201518160030160006101000a81548160ff02191690831515021790555060808201518160040155905050505050565b6000600460008373ffffffffffffffffffffffffffffffffffffffff1673ffffffffffffffffffffffffffffffffffffffff16815260200190815260200160002060000160009054906101000a900460ff16801561108e5750600460008373ffffffffffffffffffffffffffffffffffffffff1673ffffffffffffffffffffffffffffffffffffffff1681526020019081526020016000206001015442105b9050919050565b7fdac5b2420cc0aa27a8d03fdfc2c7e41e7f97304cbf153539bb329406688573466110bf81611bba565b600460008373ffffffffffffffffffffffffffffffffffffffff1673ffffffffffffffffffffffffffffffffffffffff16815260200190815260200160002060000160009054906101000a900460ff1661114e576040517f08c379a0000000000000000000000000000000000000000000000000000000008152600401611145906127cc565b60405180910390fd5b61115782611bce565b6040518060a001604052808373ffffffffffffffffffffffffffffffffffffffff16815260200142815260200160015442611192919061270a565b81526020016000151581526020016000815250600560008473ffffffffffffffffffffffffffffffffffffffff1673ffffffffffffffffffffffffffffffffffffffff16815260200190815260200160002060008201518160000160006101000a81548173ffffffffffffffffffffffffffffffffffffffff021916908373ffffffffffffffffffffffffffffffffffffffff160217905550602082015181600101556040820151816002015560608201518160030160006101000a81548160ff021916908315150217905550608082015181600401559050505050565b7fdac5b2420cc0aa27a8d03fdfc2c7e41e7f97304cbf153539bb3294066885734661129a81611bba565b6112c47faef616367f94e08b5db6d06c8e8306cf62f838d101a77927bb7302225e13280c83611a1f565b6112da6001600354611f3c90919063ffffffff16565b60038190555060005b60088054905081101561146c578273ffffffffffffffffffffffffffffffffffffffff166008828154811061131b5761131a612956565b5b9060005260206000200160009054906101000a900473ffffffffffffffffffffffffffffffffffffffff1673ffffffffffffffffffffffffffffffffffffffff160361145957600860016008805490506113759190612985565b8154811061138657611385612956565b5b9060005260206000200160009054906101000a900473ffffffffffffffffffffffffffffffffffffffff16600882815481106113c5576113c4612956565b5b9060005260206000200160006101000a81548173ffffffffffffffffffffffffffffffffffffffff021916908373ffffffffffffffffffffffffffffffffffffffff160217905550600880548061141f5761141e6129b9565b5b6001900381819060005260206000200160006101000a81549073ffffffffffffffffffffffffffffffffffffffff0219169055905561146c565b8080611464906129e8565b9150506112e3565b505050565b600080600080600460008673ffffffffffffffffffffffffffffffffffffffff1673ffffffffffffffffffffffffffffffffffffffff16815260200190815260200160002090508060000160009054906101000a900460ff1681600101548260020160009054906101000a900473ffffffffffffffffffffffffffffffffffffffff16935093509350509193909250565b7faef616367f94e08b5db6d06c8e8306cf62f838d101a77927bb7302225e13280c61152c81611bba565b6115567fdac5b2420cc0aa27a8d03fdfc2c7e41e7f97304cbf153539bb3294066885734683610d4c565b61156c6001600254611d5d90919063ffffffff16565b6002819055506007829080600181540180825580915050600190039060005260206000200160009091909190916101000a81548173ffffffffffffffffffffffffffffffffffffffff021916908373ffffffffffffffffffffffffffffffffffffffff1602179055505050565b7faef616367f94e08b5db6d06c8e8306cf62f838d101a77927bb7302225e13280c61160381611bba565b61162d7fdac5b2420cc0aa27a8d03fdfc2c7e41e7f97304cbf153539bb3294066885734683611a1f565b6116436001600254611f3c90919063ffffffff16565b60028190555060005b6007805490508110156117d5578273ffffffffffffffffffffffffffffffffffffffff166007828154811061168457611683612956565b5b9060005260206000200160009054906101000a900473ffffffffffffffffffffffffffffffffffffffff1673ffffffffffffffffffffffffffffffffffffffff16036117c257600760016007805490506116de9190612985565b815481106116ef576116ee612956565b5b9060005260206000200160009054906101000a900473ffffffffffffffffffffffffffffffffffffffff166007828154811061172e5761172d612956565b5b9060005260206000200160006101000a81548173ffffffffffffffffffffffffffffffffffffffff021916908373ffffffffffffffffffffffffffffffffffffffff1602179055506007805480611788576117876129b9565b5b6001900381819060005260206000200160006101000a81549073ffffffffffffffffffffffffffffffffffffffff021916905590556117d5565b80806117cd906129e8565b91505061164c565b505050565b60015481565b60025481565b600080600084815260200190815260200160002060000160008373ffffffffffffffffffffffffffffffffffffffff1673ffffffffffffffffffffffffffffffffffffffff16815260200190815260200160002060009054906101000a900460ff16905092915050565b7fdac5b2420cc0aa27a8d03fdfc2c7e41e7f97304cbf153539bb3294066885734681565b6000801b81565b6007818154811061188b57600080fd5b906000526020600020016000915054906101000a900473ffffffffffffffffffffffffffffffffffffffff1681565b60035481565b7faef616367f94e08b5db6d06c8e8306cf62f838d101a77927bb7302225e13280c6118ea81611bba565b6118f383610fef565b15611933576040517f08c379a000000000000000000000000000000000000000000000000000000000815260040161192a90612a7c565b60405180910390fd5b60405180606001604052806001151581526020018381526020013373ffffffffffffffffffffffffffffffffffffffff16815250600460008573ffffffffffffffffffffffffffffffffffffffff1673ffffffffffffffffffffffffffffffffffffffff16815260200190815260200160002060008201518160000160006101000a81548160ff0219169083151502179055506020820151816001015560408201518160020160006101000a81548173ffffffffffffffffffffffffffffffffffffffff021916908373ffffffffffffffffffffffffffffffffffffffff160217905550905050505050565b611a2882610c56565b611a3181611bba565b611a3b8383611e5b565b505050565b60088181548110611a5057600080fd5b906000526020600020016000915054906101000a900473ffffffffffffffffffffffffffffffffffffffff1681565b7faef616367f94e08b5db6d06c8e8306cf62f838d101a77927bb7302225e13280c611aa981611bba565b611ab282610fef565b611af1576040517f08c379a0000000000000000000000000000000000000000000000000000000008152600401611ae890612838565b60405180910390fd5b6000600460008473ffffffffffffffffffffffffffffffffffffffff1673ffffffffffffffffffffffffffffffffffffffff16815260200190815260200160002060000160006101000a81548160ff0219169083151502179055505050565b60007f01ffc9a7000000000000000000000000000000000000000000000000000000007bffffffffffffffffffffffffffffffffffffffffffffffffffffffff1916827bffffffffffffffffffffffffffffffffffffffffffffffffffffffff1916149050919050565b611bcb81611bc6611e53565b611f52565b50565b60005b600780549050811015611cc4576000600660008473ffffffffffffffffffffffffffffffffffffffff1673ffffffffffffffffffffffffffffffffffffffff168152602001908152602001600020600060078481548110611c3557611c34612956565b5b9060005260206000200160009054906101000a900473ffffffffffffffffffffffffffffffffffffffff1673ffffffffffffffffffffffffffffffffffffffff1673ffffffffffffffffffffffffffffffffffffffff16815260200190815260200160002060006101000a81548160ff0219169083151502179055508080611cbc906129e8565b915050611bd1565b50600560008273ffffffffffffffffffffffffffffffffffffffff1673ffffffffffffffffffffffffffffffffffffffff168152602001908152602001600020600080820160006101000a81549073ffffffffffffffffffffffffffffffffffffffff0219169055600182016000905560028201600090556003820160006101000a81549060ff02191690556004820160009055505050565b60008183611d6b919061270a565b905092915050565b611d7d82826117e6565b611e4f57600160008084815260200190815260200160002060000160008373ffffffffffffffffffffffffffffffffffffffff1673ffffffffffffffffffffffffffffffffffffffff16815260200190815260200160002060006101000a81548160ff021916908315150217905550611df4611e53565b73ffffffffffffffffffffffffffffffffffffffff168173ffffffffffffffffffffffffffffffffffffffff16837f2f8788117e7eff1d82e926ec794901d17c78024a50270940304540a733656f0d60405160405180910390a45b5050565b600033905090565b611e6582826117e6565b15611f3857600080600084815260200190815260200160002060000160008373ffffffffffffffffffffffffffffffffffffffff1673ffffffffffffffffffffffffffffffffffffffff16815260200190815260200160002060006101000a81548160ff021916908315150217905550611edd611e53565b73ffffffffffffffffffffffffffffffffffffffff168173ffffffffffffffffffffffffffffffffffffffff16837ff6391f5c32d9c69d2a47ea670b442974b53935d1edc7fd64eb21e047a839171b60405160405180910390a45b5050565b60008183611f4a9190612985565b905092915050565b611f5c82826117e6565b611fd357611f6981611fd7565b611f778360001c6020612004565b604051602001611f88929190612ba5565b6040516020818303038152906040526040517f08c379a0000000000000000000000000000000000000000000000000000000008152600401611fca9190612c29565b60405180910390fd5b5050565b6060611ffd8273ffffffffffffffffffffffffffffffffffffffff16601460ff16612004565b9050919050565b606060006002836002612017919061273e565b612021919061270a565b67ffffffffffffffff81111561203a57612039612c4b565b5b6040519080825280601f01601f19166020018201604052801561206c5781602001600182028036833780820191505090505b5090507f3000000000000000000000000000000000000000000000000000000000000000816000815181106120a4576120a3612956565b5b60200101907effffffffffffffffffffffffffffffffffffffffffffffffffffffffffffff1916908160001a9053507f78000000000000000000000000000000000000000000000000000000000000008160018151811061210857612107612956565b5b60200101907effffffffffffffffffffffffffffffffffffffffffffffffffffffffffffff1916908160001a90535060006001846002612148919061273e565b612152919061270a565b90505b60018111156121f2577f3031323334353637383961626364656600000000000000000000000000000000600f86166010811061219457612193612956565b5b1a60f81b8282815181106121ab576121aa612956565b5b60200101907effffffffffffffffffffffffffffffffffffffffffffffffffffffffffffff1916908160001a905350600485901c9450806121eb90612c7a565b9050612155565b5060008414612236576040517f08c379a000000000000000000000000000000000000000000000000000000000815260040161222d90612cef565b60405180910390fd5b8091505092915050565b600080fd5b60007fffffffff0000000000000000000000000000000000000000000000000000000082169050919050565b61227a81612245565b811461228557600080fd5b50565b60008135905061229781612271565b92915050565b6000602082840312156122b3576122b2612240565b5b60006122c184828501612288565b91505092915050565b60008115159050919050565b6122df816122ca565b82525050565b60006020820190506122fa60008301846122d6565b92915050565b600073ffffffffffffffffffffffffffffffffffffffff82169050919050565b600061232b82612300565b9050919050565b61233b81612320565b811461234657600080fd5b50565b60008135905061235881612332565b92915050565b612367816122ca565b811461237257600080fd5b50565b6000813590506123848161235e565b92915050565b600080604083850312156123a1576123a0612240565b5b60006123af85828601612349565b92505060206123c085828601612375565b9150509250929050565b6000819050919050565b6123dd816123ca565b81146123e857600080fd5b50565b6000813590506123fa816123d4565b92915050565b6000806040838503121561241757612416612240565b5b600061242585828601612349565b9250506020612436858286016123eb565b9150509250929050565b6000819050919050565b61245381612440565b811461245e57600080fd5b50565b6000813590506124708161244a565b92915050565b60006020828403121561248c5761248b612240565b5b600061249a84828501612461565b91505092915050565b6124ac81612440565b82525050565b60006020820190506124c760008301846124a3565b92915050565b6000602082840312156124e3576124e2612240565b5b60006124f184828501612349565b91505092915050565b6000806040838503121561251157612510612240565b5b600061251f85828601612461565b925050602061253085828601612349565b9150509250929050565b612543816123ca565b82525050565b61255281612320565b82525050565b600060608201905061256d60008301866122d6565b61257a602083018561253a565b6125876040830184612549565b949350505050565b60006020820190506125a4600083018461253a565b92915050565b6000602082840312156125c0576125bf612240565b5b60006125ce848285016123eb565b91505092915050565b60006020820190506125ec6000830184612549565b92915050565b600082825260208201905092915050565b7f566f746520686173206578706972656400000000000000000000000000000000600082015250565b60006126396010836125f2565b915061264482612603565b602082019050919050565b600060208201905081810360008301526126688161262c565b9050919050565b7f416c726561647920766f74656400000000000000000000000000000000000000600082015250565b60006126a5600d836125f2565b91506126b08261266f565b602082019050919050565b600060208201905081810360008301526126d481612698565b9050919050565b7f4e487b7100000000000000000000000000000000000000000000000000000000600052601160045260246000fd5b6000612715826123ca565b9150612720836123ca565b9250828201905080821115612738576127376126db565b5b92915050565b6000612749826123ca565b9150612754836123ca565b9250828202612762816123ca565b91508282048414831517612779576127786126db565b5b5092915050565b7f55736572206973206e6f74207665726966696564000000000000000000000000600082015250565b60006127b66014836125f2565b91506127c182612780565b602082019050919050565b600060208201905081810360008301526127e5816127a9565b9050919050565b7f5573657220646f6573206e6f7420657869737400000000000000000000000000600082015250565b60006128226013836125f2565b915061282d826127ec565b602082019050919050565b6000602082019050818103600083015261285181612815565b9050919050565b7f416363657373436f6e74726f6c3a2063616e206f6e6c792072656e6f756e636560008201527f20726f6c657320666f722073656c660000000000000000000000000000000000602082015250565b60006128b4602f836125f2565b91506128bf82612858565b604082019050919050565b600060208201905081810360008301526128e3816128a7565b9050919050565b7f5573657220697320616c72656164792076657269666965640000000000000000600082015250565b60006129206018836125f2565b915061292b826128ea565b602082019050919050565b6000602082019050818103600083015261294f81612913565b9050919050565b7f4e487b7100000000000000000000000000000000000000000000000000000000600052603260045260246000fd5b6000612990826123ca565b915061299b836123ca565b92508282039050818111156129b3576129b26126db565b5b92915050565b7f4e487b7100000000000000000000000000000000000000000000000000000000600052603160045260246000fd5b60006129f3826123ca565b91507fffffffffffffffffffffffffffffffffffffffffffffffffffffffffffffffff8203612a2557612a246126db565b5b600182019050919050565b7f5573657220616c72656164792065786973747300000000000000000000000000600082015250565b6000612a666013836125f2565b9150612a7182612a30565b602082019050919050565b60006020820190508181036000830152612a9581612a59565b9050919050565b600081905092915050565b7f416363657373436f6e74726f6c3a206163636f756e7420000000000000000000600082015250565b6000612add601783612a9c565b9150612ae882612aa7565b601782019050919050565b600081519050919050565b60005b83811015612b1c578082015181840152602081019050612b01565b60008484015250505050565b6000612b3382612af3565b612b3d8185612a9c565b9350612b4d818560208601612afe565b80840191505092915050565b7f206973206d697373696e6720726f6c6520000000000000000000000000000000600082015250565b6000612b8f601183612a9c565b9150612b9a82612b59565b601182019050919050565b6000612bb082612ad0565b9150612bbc8285612b28565b9150612bc782612b82565b9150612bd38284612b28565b91508190509392505050565b6000601f19601f8301169050919050565b6000612bfb82612af3565b612c0581856125f2565b9350612c15818560208601612afe565b612c1e81612bdf565b840191505092915050565b60006020820190508181036000830152612c438184612bf0565b905092915050565b7f4e487b7100000000000000000000000000000000000000000000000000000000600052604160045260246000fd5b6000612c85826123ca565b915060008203612c9857612c976126db565b5b600182039050919050565b7f537472696e67733a20686578206c656e67746820696e73756666696369656e74600082015250565b6000612cd96020836125f2565b9150612ce482612ca3565b602082019050919050565b60006020820190508181036000830152612d0881612ccc565b905091905056fea26469706673582212209dd81b81de38a9abe427bf2c47893d61882582f976f4bca444294ce79b9971a464736f6c63430008120033",
  "linkReferences": {},
  "deployedLinkReferences": {}
}